{
  "contractName": "Todo",
  "abi": [
    {
      "anonymous": false,
      "inputs": [
        {
          "indexed": false,
          "internalType": "string",
          "name": "_title",
          "type": "string"
        },
        {
          "indexed": false,
          "internalType": "string",
          "name": "_description",
          "type": "string"
        },
        {
          "indexed": false,
          "internalType": "string",
          "name": "_createdAt",
          "type": "string"
        }
      ],
      "name": "NewItemAdded",
      "type": "event"
    },
    {
      "constant": true,
      "inputs": [],
      "name": "itemCount",
      "outputs": [
        {
          "internalType": "uint256",
          "name": "",
          "type": "uint256"
        }
      ],
      "payable": false,
      "stateMutability": "view",
      "type": "function"
    },
    {
      "constant": true,
      "inputs": [
        {
          "internalType": "uint256",
          "name": "",
          "type": "uint256"
        }
      ],
      "name": "todoItems",
      "outputs": [
        {
          "internalType": "uint256",
          "name": "id",
          "type": "uint256"
        },
        {
          "internalType": "string",
          "name": "title",
          "type": "string"
        },
        {
          "internalType": "string",
          "name": "description",
          "type": "string"
        },
        {
          "internalType": "string",
          "name": "createdAt",
          "type": "string"
        }
      ],
      "payable": false,
      "stateMutability": "view",
      "type": "function"
    },
    {
      "constant": false,
      "inputs": [
        {
          "internalType": "string",
          "name": "_title",
          "type": "string"
        },
        {
          "internalType": "string",
          "name": "_description",
          "type": "string"
        },
        {
          "internalType": "string",
          "name": "_createdAt",
          "type": "string"
        }
      ],
      "name": "setNewItem",
      "outputs": [],
      "payable": false,
      "stateMutability": "nonpayable",
      "type": "function"
    }
  ],
  "bytecode": "0x60806040526000805534801561001457600080fd5b50610961806100246000396000f3fe608060405234801561001057600080fd5b50600436106100415760003560e01c80636bfb0d01146100465780637a57e9b314610060578063c627e61014610216575b600080fd5b61004e61037e565b60408051918252519081900360200190f35b6102146004803603606081101561007657600080fd5b81019060208101813564010000000081111561009157600080fd5b8201836020820111156100a357600080fd5b803590602001918460018302840111640100000000831117156100c557600080fd5b91908080601f016020809104026020016040519081016040528093929190818152602001838380828437600092019190915250929594936020810193503591505064010000000081111561011857600080fd5b82018360208201111561012a57600080fd5b8035906020019184600183028401116401000000008311171561014c57600080fd5b91908080601f016020809104026020016040519081016040528093929190818152602001838380828437600092019190915250929594936020810193503591505064010000000081111561019f57600080fd5b8201836020820111156101b157600080fd5b803590602001918460018302840111640100000000831117156101d357600080fd5b91908080601f016020809104026020016040519081016040528093929190818152602001838380828437600092019190915250929550610384945050505050565b005b6102336004803603602081101561022c57600080fd5b50356106c9565b60405180858152602001806020018060200180602001848103845287818151815260200191508051906020019080838360005b8381101561027e578181015183820152602001610266565b50505050905090810190601f1680156102ab5780820380516001836020036101000a031916815260200191505b50848103835286518152865160209182019188019080838360005b838110156102de5781810151838201526020016102c6565b50505050905090810190601f16801561030b5780820380516001836020036101000a031916815260200191505b50848103825285518152855160209182019187019080838360005b8381101561033e578181015183820152602001610326565b50505050905090810190601f16801561036b5780820380516001836020036101000a031916815260200191505b5097505050505050505060405180910390f35b60005481565b60008351116103cf576040805162461bcd60e51b81526020600482015260126024820152715469746c652069732072657175697265642160701b604482015290519081900360640190fd5b6000825111610425576040805162461bcd60e51b815260206004820152601860248201527f4465736372697074696f6e206973207265717569726564210000000000000000604482015290519081900360640190fd5b600081511161047b576040805162461bcd60e51b815260206004820152601760248201527f4372656174656420617420697320726571756972656421000000000000000000604482015290519081900360640190fd5b336104cd576040805162461bcd60e51b815260206004820152601960248201527f5573657220616464726573732069732072657175697265642100000000000000604482015290519081900360640190fd5b60008054600190810180835560408051608081018252828152602080820189815282840189905260608301889052938652848152919094208451815591518051929361052193908501929190910190610891565b506040820151805161053d916002840191602090910190610891565b5060608201518051610559916003840191602090910190610891565b509050507f9ea29fb0c759cc7dbdcdeac6ebdd6944b06dd16cce1bde3c61bc35e0a921e17c83838360405180806020018060200180602001848103845287818151815260200191508051906020019080838360005b838110156105c65781810151838201526020016105ae565b50505050905090810190601f1680156105f35780820380516001836020036101000a031916815260200191505b50848103835286518152865160209182019188019080838360005b8381101561062657818101518382015260200161060e565b50505050905090810190601f1680156106535780820380516001836020036101000a031916815260200191505b50848103825285518152855160209182019187019080838360005b8381101561068657818101518382015260200161066e565b50505050905090810190601f1680156106b35780820380516001836020036101000a031916815260200191505b50965050505050505060405180910390a1505050565b600160208181526000928352604092839020805481840180548651600296821615610100026000190190911695909504601f810185900485028601850190965285855290949193929091908301828280156107655780601f1061073a57610100808354040283529160200191610765565b820191906000526020600020905b81548152906001019060200180831161074857829003601f168201915b50505060028085018054604080516020601f60001961010060018716150201909416959095049283018590048502810185019091528181529596959450909250908301828280156107f75780601f106107cc576101008083540402835291602001916107f7565b820191906000526020600020905b8154815290600101906020018083116107da57829003601f168201915b5050505060038301805460408051602060026001851615610100026000190190941693909304601f81018490048402820184019092528181529495949350908301828280156108875780601f1061085c57610100808354040283529160200191610887565b820191906000526020600020905b81548152906001019060200180831161086a57829003601f168201915b5050505050905084565b828054600181600116156101000203166002900490600052602060002090601f016020900481019282601f106108d257805160ff19168380011785556108ff565b828001600101855582156108ff579182015b828111156108ff5782518255916020019190600101906108e4565b5061090b92915061090f565b5090565b61092991905b8082111561090b5760008155600101610915565b9056fea265627a7a723158207d518273c9e53e0c8ed46b2ba13d7b52b0b4cc6aa6c0acefce32b6ab9cc6c77264736f6c63430005100032",
  "source": "// SPDX-License-Identifier: Non Licensed\npragma solidity ^0.5.0;\n\ncontract Todo{\n    // init the count for item\n    uint public itemCount = 0;\n    \n    // declare todo structure\n    struct TodoItem {\n        uint256 id;\n        string title;\n        string description;\n        string createdAt;\n    }\n    \n    // event after the process is completed\n    event NewItemAdded(string _title, string _description, string _createdAt);\n    \n    // init array of structs\n    mapping(uint256 => TodoItem) public todoItems;\n    \n    // add new item to the array\n    function setNewItem(string memory _title, string memory _description, string memory _createdAt) public {\n        // check all the requirement    ites\n        require(bytes(_title).length > 0 , 'Title is required!');\n        require(bytes(_description).length > 0 , 'Description is required!');\n        require(bytes(_createdAt).length > 0 , 'Created at is required!');\n        require(msg.sender != address(0x0), \"User address is required!\");\n        \n        ++itemCount;\n        todoItems[itemCount] = TodoItem(itemCount, _title, _description, _createdAt);\n        emit NewItemAdded(_title, _description, _createdAt);\n    }\n}",
  "sourcePath": "C:/Users/sangy/Documents/todo-dapp/contracts/Todo.sol",
  "compiler": {
    "name": "solc",
    "version": "0.5.16+commit.9c3226ce.Emscripten.clang"
  },
  "schemaVersion": "3.3.1",
  "updatedAt": "2020-10-31T17:09:13.615Z",
  "networkType": "ethereum",
  "devdoc": {
    "methods": {}
  },
  "userdoc": {
    "methods": {}
  }
}